:104000000010002039640000D5970000D997000007
:10401000FF840300DD970000E5970000FF840300A4
:10402000FF840300FF840300FF840300FF84030078
:10403000E9970000EC240400FF840300FF840300E0
:10404000FF840300FF840300FF8403001D69000058
:10405000FF840300FF840300FF840300FF84030048
:10406000FF840300FF84030099AB0000B15F0000F0
:10407000377E0300FF840300FF840300FF840300F6
:10408000FF840300FF840300FF840300FF84030018
:10409000FF84030001710000FF840300FF8403001C
:1040A000FF8403007972000059720000FF8403004E
:1040B000FF84030009E60300FF840300E906020011
:1040C0000FE603000BE60300A9FE01001BE6030058
:1040D00013E60300AD06020017E60300E1EC010061
:1040E00029070200FF840300FF840300F598000005
:1040F000FF840300FF840300FF840300FF840300A8
:10410000FF840300FF840300FF840300FF84030097
:10411000FF840300FF840300FF840300FF84030087
:10412000FF840300FF840300FF840300FF84030077
:10413000FF840300000000002DE9F04F4FF0FF0B5B
:10414000C9B099460DF11B089DF8503108AFCDF864
:104150000C80CDF808B001970593038904460093BD
:1041600083790E46924641888288407811F0FEFF9E
:10417000054650B10090A388002062883C4912F0A7
:10418000CBFA284649B0BDE8F08F98F8000037F028
:1041900002FA38B12846A3886288364912F0BCFA80
:1041A0008D25EEE75A46394698F8000037F0C8F9F1
:1041B0008346002856D0529B1BB1BDF84C31984223
:1041C00050D8002398F800800793A8F14102012AF3
:1041D0005FFA8BFE37D839460EF1FF3E264ADFF8EC
:1041E000A0C05FFA8EFE734501F1010125DB059B3E
:1041F0004FF0040E079243BB07A918231F489FEDF9
:104200001A7B03FB0602104682ED027B08307246E1
:104210003DF028FBBAF1000F01D08AF80080B9F117
:10422000000F01D0A9F800B0529B002BA9D05A462C
:10423000184608A93DF016FBA3E708780133424071
:104240000CFB02F2CFE7059B3BB123464246714689
:10425000384600960DF034FF93E7BEF1080FD9D829
:104260003946CAE701258CE7000000000000000085
:104270001E6004004F600400C59D1C819018002042
:1042800093010001000000002DE9F04F2DED088B97
:104290008DB09DED1E7B09EE903ADDE920430A9337
:1042A000229B09EE100A8A460792069351EC170BDF
:1042B00053EC172BB0EE478AF0EE678A32F0D2FB50
:1042C00080B14FF0FF3251EC180BCF4B32F0F2FBC4
:1042D00040B94FF0FF326FF4801351EC180B32F0FD
:1042E000CBFB98B1069B514622930A9B19EE100A0C
:1042F000CDE9204319EE903A079A8DED1E8B0DB053
:10430000BDEC088BBDE8F04F00F0A2B900220023FD
:1043100051EC180B32F0B0FB002800F0448118EE8D
:10432000903A18EE108A03F10049069BC9F30A502F
:1043300013F48063A0F2FF3008BF06240B9332F021
:10434000BFF8A1A3D3E9002332F024F9A0A3D3E955
:10435000002331F069FFC9F313050F4645F07F5183
:1043600006460022A94B404641F4401131F05AFF65
:1043700099A3D3E9002332F00DF902460B463046EB
:10438000394631F051FF32F09FFB834632F098F806
:1043900093A3D3E9002306460F4632F0FBF8002230
:1043A0009B4B31F041FF32F08FFB8FA3D3E9002309
:1043B00005463946304632F0EDF8064628460F46A7
:1043C00032F07EF88AA3D3E9002332F0E3F8024604
:1043D0000B463046394631F025FF02460B4606466D
:1043E0000F4632F0D7F8324641EC1A0B3B463046C6
:1043F000394631F019FF002241EC1B0B854B51EC83
:104400001A0B32F0F1F90022834B31F00DFF024616
:104410000B4651EC1A0B32F0E7F900227F4B31F0DA
:1044200003FF02460B4651EC1A0B32F0DDF932461F
:1044300041EC1A0B3B4600204FF0804131F0F2FE78
:1044400002460B4651EC1A0B31F0EEFE02460B46CB
:1044500051EC1B0B32F0C8F905F2FF350022704B0E
:1044600031F0E2FE00222B0532F094F842464B4632
:1044700006460F4632F01EFB002840F09780CDE93B
:1044800008670BF16303C72B069B34BF0425052582
:10449000190521D558A3D3E900234046494632F0F7
:1044A000FFFA002800F0BE8055A3D3E90023404660
:1044B000494632F0E1FA002800F0B48000255C455E
:1044C000CCBFA4EB0B000024AB46069BC8BF00F199
:1044D000FF3443F4806306930A9B9D4238BF5E1B02
:1044E000069B28BF002613F0020702D0002D18BF3C
:1044F0000026BBF1000F07D0DDE9082340464946FE
:1045000032F072F9804689460022002351EC180BE4
:1045100032F0B2FA10B109F100439946069B5146B8
:1045200023F40063CDE9036319EE100A19EE903A03
:10453000CDE90089079A029400F08AF875B3069BCA
:10454000024613F0200F00F1010619EE903A14BF55
:1045500045206520514619EE104AA0470523002248
:1045600005930A238BEAEB70CDE90232A0EBEB70E6
:104570004FEADB73013D0193009019EE903A324609
:10458000514619EE100A049538F06DFE37B1079BBD
:10459000C51A079B58190A9BAB424CD80DB0BDEC0D
:1045A000088BBDE8F08F59EC188BBEE60022304630
:1045B0003946194B32F018F90BF1FF3BCDE90801F0
:1045C0005FE700BFAFF30080FB799F501344D33FF8
:1045D000B3C8608B288AC63F61436F63A787D23F09
:1045E00071A379094F930A401655B5BBB16B0240D0
:1045F000EF39FAFE422EE63F2D431CEBE2361A3F1E
:104600000000000080842E41FFFFEF7F0000F83F94
:104610000000E03F00002C40000024400000184053
:104620000000F03F002C3FF457AF0B9B002B3FF4F2
:1046300053AF013C50E7024619EE903A5146202014
:1046400019EE104AA0470135A3E700BF00000000A3
:104650002DE9F04F2DED088B8FB0DDE920AB08EE92
:10466000100A0F4608EE902A09EE103ADDE92253AF
:104670005246049350465B465946249E32F0F2F966
:10468000A0B9049B2396229303232193B84B209334
:1046900018EE902A19EE103A394618EE100A0FB0AB
:1046A000BDEC088BBDE8F04F38F015BD4FF0FF3280
:1046B0006FF480135046594632F0DEF930B1049B56
:1046C0002396229304232193AA4BE0E74FF0FF3275
:1046D00050465946A84B32F0EDF970B1A74A06F0A2
:1046E0000403002B08BF0322A54B1CBF1346042262
:1046F00004992396CDE92121C9E7504698A3D3E92F
:104700000023594632F0D6F938B997A3D3E90023EC
:104710005046594632F0B0F998B1049B18EE902AF1
:10472000CDE92253394619EE103A18EE100ACDE9B8
:1047300020AB24960FB0BDEC088BBDE8F04FFFF71F
:10474000A3BD002200235046594632F095F90028B7
:1047500000F081805B4652460020002131F062FD6E
:10476000012382468B46059316F4806F08BF062509
:104770003021A94606ABA5F12002B9F1090FA5EB3E
:10478000090406D909F1FF394A4503F8011BF4D1A0
:1047900020245946504632F097F97A4B054603EBF0
:1047A000C90393ED007BB0EE47AAF0EE67AA31F0A3
:1047B00087FE02460B465046594631F033FD53EC16
:1047C0001A2B31F0E7FE02460B4643EC1B2B32F06E
:1047D000A3F9804631F064FE02460B4651EC1B0BF8
:1047E00031F020FD02460B4643EC1B2B0022664BAA
:1047F00032F060F988B308F10108404631F050FE0C
:1048000002460B4651EC1A0B32F040F910B14FF052
:1048100000080135B9F1000F51D1284631F050FEA2
:1048200002460B465046594631F0FCFC0022564BDE
:104830008046894632F020F930B100224046494690
:10484000514B32F037F910B1E80700D5013506AB0E
:104850000A2223445AE0059086E7002251EC1B0B04
:10486000494B32F009F90028D4D1B8F1000F02D039
:1048700018F0010FCED008F10108CBE7B8FBF1F03A
:1048800001FB1082B8F1090F02F1300209F1FF3982
:1048900004F1010403F8012B28D83021A14406AA11
:1048A000202C11D04C4504F1010321D104F1380230
:1048B0000DEB02042E2204F8202C1C46C7E70A2127
:1048C00006AB2344202CD9D106F00303012B06AB01
:1048D00039D1049A002A36D0059A12B916F00C0F75
:1048E00002D0049A013A0492302214E08046E9E7AB
:1048F000A1541C46D4E795FBF2F102FB115530356B
:1049000003F8015B01340D460029DDD0202CF2D1E3
:10491000DAE71A5501340499A14214D9202CF8D1B0
:10492000049A0093CDE9014219EE103A18EE902A4C
:10493000394618EE100A039638F0CDFB0FB0BDECE7
:10494000088BBDE8F08F202CEAD0059AF2B12D211A
:1049500004F138026A4402F8201C0134E0E700BF89
:104960000000000065CDCD410000000065CDCDC147
:10497000157E0400197E0400FFFFEF7F107E040007
:104980000C7E0400207E04000000E03F710704D587
:1049900004F138022B216A44DDE73207C0D504F167
:1049A000380220216A44D6E770B58EB02C2200214F
:1049B00003A83CF07EFF64234FF0023201210893EC
:1049C0008DF81010CDE905230B238DF83430504BB2
:1049D0001B88D80700F1958008464E4C20F09AF8C5
:1049E0004D4B0A224D494E481A704FF42873ADF8CA
:1049F00012301BF013FF206020B940F227214948F4
:104A000004F0E6FD0521206839F0A9F920B140F253
:104A10003221444804F0DCFD20680C2501F0D4FA72
:104A2000414B2068196839F012FA20F047FF6843BB
:104A3000099020F043FF68430DEB050107902068C3
:104A400016F096FA20B140F24721364804F0C0FD36
:104A500000223649206839F07FFA20B140F249211E
:104A6000304804F0B5FD324E40F20353314D96F913
:104A700000002B8005237F28AB7001D120F044F982
:104A80003378EB7020F01AFF00EB80008000A880E4
:104A900020F014FF0023C0004FF0FF31E8804FF0FA
:104AA000FF30AB6018A3D3E9002320F005FA2249B8
:104AB000206839F043FE02A9206839F02CFA20B1B1
:104AC0004FF41F71174804F083FD042220680DEB9A
:104AD000020139F0A9F9042804D040F27F211148DD
:104AE00004F076FD01A901203AF0BBFA04F0B6FE0D
:104AF000012021F04DF933F087FF21F073F920F008
:104B000075F90EB070BD00BF0A0020FF420300001F
:104B1000DE530020604C002051610020414B020018
:104B2000181300201AA00400FC1000205861002077
:104B30006F1600204C4C0020214C020010B5054C93
:104B4000237833B9044B13B1044800E000BF0123BC
:104B5000237010BD681F002000000000ECA30400BB
:104B600008B5034B1BB10349034800E000BF08BD73
:104B7000000000006C1F0020ECA30400A3F5803AA5
:104B8000704700BF174B002B08BF134B9D46FFF724
:104B9000F5FF00218B460F461348144A121A3CF0C9
:104BA00088FE0E4B002B00D098470D4B002B00D0F9
:104BB00098470020002104000D000D48002802D075
:104BC0000C4800E000BF32F073F92000290033F0F8
:104BD000D6F832F059F900BF0000080000000000CC
:104BE00000000000001000203C180020C0610020E0
:104BF000000000000000000008B5044A0121042064
:104C000007F016FE0122024B1A7008BD381C040082
:104C10008254002010B536F045FC022810D1FF2147
:104C2000084806F035FB22F0CDFB012007F020FEFE
:104C3000BDE81040034601210420034A07F0F8BDF7
:104C400010BD00BFFC1F00204F1C04001FB536F034
:104C500029FC01210346114A042007F0E9FD36F042
:104C600021FC02280AD10090002203210DF10E033D
:104C7000012037F01DF905B05DF804FB084A012159
:104C8000042007F0D5FDFF21064806F001FB4FF494
:104C9000FA7105B05DF804EB22F01ABB721C040037
:104CA0007F1C0400BC1F0020F0B58DB02422002121
:104CB00003A83CF0FEFD02F0EFFA04460346012192
:104CC00004206E4A07F0B4FD24B1012104206C4A8F
:104CD00007F0AEFD6B4D24230121286803AA15F0CF
:104CE0005DFB694C0BAE002867D0A4238DF82C30F7
:104CF000FA23ADF81C3000235521CDE908330A937F
:104D0000624B03AFCDE90313614B05934FF49873E6
:104D1000ADF8183064238DF81A3023683A4603CA78
:104D2000B24218605960174603F10803F6D11068C3
:104D30000121186003AA2423286815F0E5FA01214F
:104D40000346544A042007F073FD23685A7A302A38
:104D500040F0858000229A709A7A302A40F0848050
:104D60000022DA70DA7A302A40F0838000221A7149
:104D700010250022062100950233012037F067F844
:104D800023680022062100950333022037F05FF8E4
:104D900023680022062100950433032037F057F8DA
:104DA00023680022062100950533042037F04FF8D0
:104DB0000122394B1A700DB0F0BD9DF80C309DF8F2
:104DC0002C20552B01D1A42A1CD000920121334A5A
:104DD000042007F02DFDA4238DF82C30FA23ADF824
:104DE0001C3000235522CDE908330A93274BCDE927
:104DF0000323274B05934FF49873ADF818306423C1
:104E00008DF81A309DF80D3001210420244A07F056
:104E10000FFD9DF80D3003AF0133DBB2052B88BFCA
:104E200000238DF80D3023683A4603CAB242186059
:104E30005960174603F10803F6D110680121186084
:104E400003AA2423286815F05FFA22680121937BC6
:104E5000128A04200092134A07F0EAFC75E7312A0F
:104E60007FF47AAF012276E7312A7FF47BAF01220B
:104E700077E7312A7FF47CAF012278E7931C0400A6
:104E8000A71C0400D0100020981000200000303033
:104E900030323232B91C04007E540020D31C04008E
:104EA000F31C0400131D04000022044B01211870A0
:104EB000034B04201A70034A07F0BABC8454002044
:104EC00073540020391D040010B5244A8EB01378A5
:104ED0000133DBB2132B02D813700EB010BD0021CA
:104EE0001F4B11701A78002AF7D01E4C242205A8F7
:104EF00019703CF0DEFC24230121206805AA15F07E
:104F00004DFA9DF81430552BE7D19DF83430A42B81
:104F1000E3D1154A242301211268206815F0F4F921
:104F20000121C3B2114A042007F082FC05AA242300
:104F30000121206815F032FA9DF818300121029302
:104F40009DF81730042001939DF81630084A00930D
:104F50009DF8153007F06CFCBFE700BF73540020CC
:104F600084540020D010002098100020BE1C0400A3
:104F70004A1D040070B5054636F094FA044603460F
:104F800001210420184A07F053FC022C12D0032CF4
:104F900023D0DCB90AF054FC01210346134A042053
:104FA00007F046FC95B10122114B1A70BDE8704024
:104FB0000EF020BF0E4E55B10EF01CFF234601210E
:104FC00004200C4A07F034FC0123337070BD3570A7
:104FD0000948BDE8704033F070BB0AF0D9FA0122ED
:104FE000034B1A70F2E700BF891D0400A41D0400E2
:104FF00082540020C31D04005C23040038B5114C0A
:10500000114A237823B113780133DBB2132B01D873
:10501000137005E0002501201570FFF7ABFF257028
:105020000A4C0B4A237823B113780133DBB2132BDC
:1050300001D8137005E0002501201570FFF79AFFD5
:10504000257038BD78540020775400207A54002011
:105050007954002008B51B4A13780133DBB2182BB2
:105060000FD81370184A13780133DBB2092B14D808
:105070001370164A1388012B84BF03F1FF3313808A
:1050800008BD00231370FFF7B9FF114B1B78012BEC
:10509000E8D1104833F014FBE4E700210E4B117007
:1050A0000E4A197013780133DBB2092BE0D9117065
:1050B00001220B4B0B491A700B7813440B700A4BEF
:1050C0001A70D6E77D5400206F540020444D002014
:1050D000825400205C230400815400208654002068
:1050E0007F540020805400207554002038B5194D9D
:1050F000194C2B7853B12378B12B02D80020FFF73D
:1051000039FF23780133DBB2B92B01D8237005E0D6
:105110000023124823702B7033F0CCFA104C227805
:1051200032B910490B780133DBB2022B01D80B7076
:1051300038BD01200C4B0A701B6820705A70FFF7B5
:10514000B3FE36F0AFF90228F2D1BDE8384003488B
:1051500033F0B3BA82540020875400205C2304004B
:1051600076540020885400209810002037B50E4C4B
:1051700034F06CF82288AAB10C4B1B68C11A91421A
:1051800010D300250A4A012100930346042007F0AA
:105190004FFB2188074813F099FE258000F028FC7A
:1051A000054B1D7003B030BD464D0020442000204B
:1051B000E61D04000C1E040080540020012307B5E6
:1051C0000A21084A00930848002301F053F8FFF72A
:1051D0006BFD00F0C3FD142003B05DF804EB3AF062
:1051E00089BA00BF55500000841F002013B50D4A36
:1051F00013780133DBB2182B02D8137002B010BD44
:105200000023012413700A21074A0094074801F083
:1052100031F821460420064A02B0BDE8104007F0EC
:1052200007BB00BF8154002055500000841F0020A0
:10523000191E04002DE9F041ADF5027D06460C462D
:1052400036F030F9022808D001210420264A0DF555
:10525000027DBDE8F04107F0EBBA244B1B681B79D7
:10526000022B32D000214FF4FE7203A802913CF0D1
:1052700020FB68238DF80830412300218DF80A3087
:10528000042023461A4A07F0D3FA03250334DFF833
:105290006C8002AF013EA4B2A542294619D10A2270
:1052A0000021144B1820CDE9007511F0F5F801210B
:1052B000C3B2114A042007F0BBFA0121084611F0DD
:1052C0007DF90021084636F007FE0DF5027DBDE8A8
:1052D000F08116F8013F42467B540420002101353D
:1052E000ADB207F0A5FAD7E7281E0400C8380020A1
:1052F0004F1E0400704104005C1E0400531E040095
:105300007FB5002406460D4602948DF80C4036F019
:10531000C9F8022806D001210420194A07F088FAAA
:1053200004B070BD174B1B681B79022BF8D01023FB
:105330008DF80B5004258DF80A3002AB00930A2239
:105340000621114B019518208DF808408DF8094071
:1053500011F0A2F80D4AC3B20121284607F068FAFD
:105360003046012111F02AF92146204636F0B4FDDD
:1053700001210346064A284607F05AFAD0E700BF43
:10538000821E0400C838002070410400AF1E0400D3
:10539000EF1E0400036837B50446002B3AD0013BEA
:1053A0000360B3B91E4D01202B68997881F001018B
:1053B0009970FFF7A5FF012032F0EDFC2B68012169
:1053C0009B78042000932368164A07F031FA03B053
:1053D00030BD154A154C137821780133DBB2994260
:1053E0001370F4D80023137031F0A4FE052390FB52
:1053F000F3F303EB8303C31A3C33DBB20121042034
:105400000B4A237007F014FA012003B0BDE83040C6
:1054100032F0C1BC044A13703C22044B1A70D6E728
:1054200098100020121F040072540020241600203F
:10543000251F0400036837B50446002B3AD0013B12
:105440000360B3B91E4D02202B68D97881F00101A9
:10545000D970FFF755FF022032F09DFC2B68012127
:10546000DB78042000932368164A07F0E1F903B0C3
:1054700030BD154A154C137821780133DBB29942BF
:105480001370F4D80023137031F054FE052390FB01
:10549000F3F303EB8303C31A3C33DBB20121042093
:1054A0000B4A237007F0C4F9022003B0BDE8304076
:1054B00032F071BC044A13703C22044B1A70D6E7D8
:1054C00098100020301F0400715400202316002083
:1054D000251F0400036837B50446002B3AD0013B72
:1054E0000360B3B91E4D03202B68197981F00101C7
:1054F0001971FFF705FF032032F04DFC2B680121E5
:105500001B79042000932368164A07F091F903B031
:1055100030BD154A154C137821780133DBB299421E
:105520001370F4D80023137031F004FE052390FBB0
:10553000F3F303EB8303C31A3C33DBB201210420F2
:105540000B4A237007F074F9032003B0BDE8304024
:1055500032F021BC044A13703C22044B1A70D6E787
:1055600098100020441F04007054002022160020D0
:10557000251F040010B50B4B1A7892B100220A4C7B
:105580001A70FFF7B3FD20681430FFF703FF20689F
:105590001830FFF74FFF2068BDE810401C30FFF7C0
:1055A00099BF10BD7F5400209810002010B533F033
:1055B0004DFE0446FFF7DAFD1C4A1368E31A092B77
:1055C00032D91460FFF780FCFFF7D4FF184B1A881C
:1055D000012A04BF00221A80FFF708FE154B1A7833
:1055E0001AB100221A7000F0A7FB134C134823686D
:1055F0009B787BB133F05EF823681148DB7863B1A8
:1056000033F058F823680F485B7B4BB1BDE810407E
:1056100033F050B833F051F8EEE733F04EF8F1E7DD
:10562000BDE8104033F049B810BD00BF1C20002079
:10563000444D00208554002098100020742304005D
:10564000A42304008C23040010B504460346012162
:1056500004201A4A07F0ECF8912C0CD10121042007
:10566000174A07F0E5F80120FFF784FCBDE8104079
:10567000144833F01FB8902C1ED1124833F01DF897
:10568000FF21114805F004FE002121F021FE00F069
:1056900065FB31F04FFDBDE810404FF4FA7390FB0D
:1056A000F3F202FB1303094ADBB204331380012136
:1056B0000420074A07F0BCB810BD00BF581F040003
:1056C0007D1F04005C230400FC1F0020444D0020CB
:1056D000B61F0400FF2310B50D4C1A4620460D4995
:1056E00005F096FDFF230C491A460C4805F090FD85
:1056F000FF230B491A460B4805F08AFDFF2120467F
:1057000005F0C6FDBDE81040002121F0E1BD00BF5D
:10571000DC1F00204D4C0000154C0000FC1F002039
:10572000F94B0000BC1F0020034601210420014A60
:1057300007F07EB8F01F0400F7B5DFF8D4C0304D95
:105740009CF800C007462870BCF1000F55D0062910
:1057500053D1002A51D1402B4FD10126294C00961C
:10576000234636F0A5FB002847D104203146237894
:10577000254A009707F05CF82878B04210D1234EF4
:1057800033689A7823789A4201D0FFF78DFB21780D
:1057900033689970287803B0BDE8F040FFF7B0BDDA
:1057A00002280CD1194F3B68DA7823789A4202D04C
:1057B0003046FFF779FB21783B68D970EAE7032888
:1057C0000CD1124F3B681A7923789A4202D03046A6
:1057D000FFF76AFB21783B681971DBE704280CD1DD
:1057E0000A4E33685A7923789A4202D00120FFF793
:1057F0005BFB217833685971CCE703B0F0BD00BF83
:1058000074540020835400200E20040098100020BF
:105810007E5400201FB50446034601210420074A98
:1058200007F006F80022402306212046CDE9022297
:10583000CDE90022FFF780FF04B010BD372004003F
:1058400008B501210420034A06F0F2FFBDE8084034
:1058500020F052BA7120040038B5424B04461D684E
:10586000854223D132F0A4FEC0B93F4B1A78E2B191
:105870003E4C1870226801219378042083F00103C4
:1058800093703B4A06F0D4FF012023689978FFF714
:1058900037FDBDE838400120FFF706BB284632F04F
:1058A00087FE012801D1304B187038BD5D688542F4
:1058B0001DD132F07DFE98B92E4B1A78002AF4D013
:1058C0002A4C187022680121D378042083F0010348
:1058D000D370294A06F0ACFF23680220D978D6E7B6
:1058E000284632F065FE0128DFD1224BDCE79A68BA
:1058F00082421BD132F05CFE98B9204B1A78002A04
:10590000D3D01A4C1870226801211379042083F037
:10591000010313711A4A06F08BFF236803201979DB
:10592000B5E72046BDE8384032F042BEDB6883422E
:10593000BBD132F03DFE0028F3D1124B1A78002A79
:10594000B3D00A4C1870226801215379042083F0E7
:10595000010353710C4A06F06BFF23680420597948
:1059600095E700BFA8100020785400209810002070
:10597000982004007A540020AD2004007B540020BD
:10598000C22004007C540020D820040070B50546D5
:105990000C4635F087FD022804D10E48BDE8704062
:1059A00013F094BA0C4B1B780BB10C48F6E70C4B78
:1059B0001B780BB10B48F1E755B9552C08D1BDE860
:1059C0007040094B012104201B78084A06F030BFC3
:1059D00070BD00BFEE2004008254002009210400A5
:1059E00075540020212104006E540020332104004E
:1059F00007B50B4B0B4A18689B880090ADF8043034
:105A000013786846591C8DF8023045231170062121
:105A10008DF80530FFF70EFC03B05DF804FB00BF06
:105A20000922040089540020F0B5ADF5017D074638
:105A30000E46154600214FF4FE7201A81C463BF0AD
:105A400038FFFF230F4A8DF8003013788DF801706E
:105A5000591C8DF80230012311708DF803308DF838
:105A6000056034B12DB1224629460DF106003BF008
:105A7000F9FEA11D684689B2FFF7DCFB0DF5017D3B
:105A8000F0BD00BF8954002010B51488012804F12E
:105A900001039BB220D1138027230B5513880128C3
:105AA00003F1010414804FF00404CC54138803F173
:105AB000010414804FF00104CC5413881C4414805A
:105AC0004FF00004CC5411D1114B186813885C1CA2
:105AD0001480427ACA5410BD022802D113802823B0
:105AE000DBE70328DAD113802923D6E7022806D181
:105AF000074B186813885C1C1480827AEAE7032835
:105B0000E9D1034B186813885C1C1480C27AE1E762
:105B100098100020002333B414880193012804F165
:105B200001039BB235D113801E230B551388012826
:105B300003F1010414804FF00204CC54138803F1E4
:105B4000010414804FF00404CC54138803F10104C1
:105B500014804FF00004CC54184C24D123685B69A6
:105B60001D0A8DF804308DF805501D0C1B0E8DF8A4
:105B700006508DF807301388019DCD5001461388DB
:105B80000F480433138023685A6902B030BC13F005
:105B90009DB9022802D113801F23C6E70328C5D16F
:105BA00013802023C1E7022802D123689B69D7E72D
:105BB0000328E0D12368DB69D2E700BF98100020FA
:105BC000482104000A8830B4531C0B8001238354FD
:105BD0000A88D4180C8083540A88D4180C80835403
:105BE0000B885A1C0A800022C2540A88054B551C97
:105BF0001C680D80A17881541B680348997830BCDB
:105C000013F064B998100020622104000B8830B4AE
:105C10005A1C0A800222C2540B885A1C0A80012294
:105C2000C2540B889C180C80C2540B889A180A80A6
:105C30000022C2540A88064B551C1C680D80E1786E
:105C400081541B680348D97830BC13F03FB900BFBA
:105C500098100020762104000B8830B45A1C0A806A
:105C60001022C2540B885A1C0A800122C2540B888D
:105C70009C180C80C2540B889A180A800022C254C7
:105C80000A88064B551C1C680D80617B81541B687B
:105C90000348597B30BC13F019B900BF981000209D
:105CA0008A21040010B50024ADF5047D4FF4FE7286
:105CB000214605A804943BF0FCFDADF80E400724F6
:105CC0000DF10E0104A8FFF77DFF0DF10E0204A9EE
:105CD0000120FFF71FFF0DF10E0204A90120FFF7BD
:105CE000D3FE0DF10E0104A8FFF790FF0DF10E0297
:105CF00004A90220FFF70EFF0DF10E0204A90220F5
:105D0000FFF7C2FE0DF10E0104A8FFF7A5FFBDF8D5
:105D10000E3001210420074A009406F089FD214637
:105D20000620BDF80E3004AAFFF77EFE0DF5047DB7
:105D300010BD00BFA321040008B535F0B3FB022855
:105D400006D0BDE8084001210420034A06F070BDDA
:105D5000BDE80840FFF7A6BFC721040007B535F02E
:105D60009DFB019031F0B8F901210420019B034A09
:105D700003B05DF804EB06F05BBD00BFF521040045
:105D800010B51E4C32F024FD236F23F0070343F0BF
:105D90000203236732F023FDD4F82031002023F0E2
:105DA000070343F00103C4F82031D4F8403123F055
:105DB000030343F00103C4F84031D4F8603123F009
:105DC000030343F00103C4F86031D4F8403223F0F8
:105DD000030343F00103C4F84032D4F8003223F047
:105DE000070343F00103C4F80032D4F8083223F06B
:105DF000070343F00103C4F8083210BD00800050CF
:105E000007B501A802F0FEF89DF80530012B27D157
:105E1000214A936DDB0313D4536B23F4FF0323F464
:105E2000FE4343F4BC1343F4A0635363136B23F4A6
:105E3000704343F440431363136B43F4E063136311
:105E40009DF8043063B94FF000531B68134B1B6877
:105E5000134B1B68134B1B68134B1B68134B1B68BE
:105E6000134AD2F8803043F00303C2F8803002F0C6
:105E7000F3FC02F0AFFC02F0B5FCFFF781FF02F08B
:105E800097FC00F013FD03F03DF801F005FA03B0B4
:105E90005DF804EB03F09EBF00C0005000400020FE
:105EA0000080002000C000200000012000400120F0
:105EB0000080005030B5184D95B00DAC0FCD0FC41B
:105EC00095E8070084E8070001240021134B144AD9
:105ED00009A8CDE903231022CDE905413BF0E9FCF7
:105EE0004FF480210F4B0DAACDE907130B238DF83A
:105EF00024300C238DF825300B4B07A90A9320235F
:105F00000B930A4B0A48009303AB8DF8314002F023
:105F10001BFF15B030BD00BFE022040021030002CA
:105F200000800550248005508A540020482000201D
:105F3000A0200020831E012B10B513D8012911D8F1
:105F4000124B0422D3F8A0300021032003F00103F8
:105F500001F0C8FE0E4B1B681868B0B1BDE81040D8
:105F6000436A18478B1E012B0DD801280DD8BDE8B8
:105F700010400022054B1146D3F8A030032003F057
:105F8000010301F0AFBE0129E4D910BD00C00350E8
:105F9000A410002008B50449044803F0C5FFBDE87B
:105FA0000840FFF787BF00BF9C100020982000200A
:105FB000014833F0FCB800BFA0200020014B1A6A52
:105FC00018681047A020002008B515F007F8002237
:105FD000014B1A7008BD00BFAA54002008B5044840
:105FE00032F0E1FABDE80840024832F0DCBA00BF06
:105FF000FC2204001423040008B5074832F057FBC4
:10600000064832F054FB064832F051FBBDE8084028
:10601000044832F04CBB00BF5C230400742304002E
:106020008C230400A42304000A46014931F05DBF1B
:106030009C2404000A46014931F057BFAE240400F5
:106040000A46014931F051BF922404000A46014931
:1060500031F04BBF5F2404000A46014931F045BFCF
:10606000972404000A46014931F03FBFC5230400CC
:106070000A46014931F039BF222404000A46014989
:1060800031F033BF7B2404000A46014931F02DBFB3
:10609000642404000A46014931F027BFD2230400DA
:1060A0000A46014931F021BFDB2304000A460149B9
:1060B00031F01BBF8B2404000A46014931F015BFA3
:1060C000802404000A46014931F00FBF3124040046
:1060D0000A46014931F009BF3C2404000A4601493F
:1060E00031F003BFBC2304000A46014931F0FDBE74
:1060F000172404000A46014931F0F7BE5C2404006D
:106100000A46014931F0F1BE592404000A4601490A
:1061100031F0EBBE562404000A46014931F0E5BED9
:10612000D32404000A46014931F0DFBEC92404002B
:106130000A46014931F0D9BE472404000A46014904
:1061400031F0D3BE4C2404000A46014931F0CDBEE3
:10615000EF2304000A46014931F0C7BEE4230400DE
:106160000A46014931F0C1BEE02404000A46014953
:1061700031F0BBBED62404000A46014931F0B5BE59
:10618000DB2404000A46014931F0AFBEC4240400F8
:106190000A46014931F0A9BEA32404000A46014978
:1061A00031F0A3BEB92404000A46014931F09DBE76
:1061B000CC2404000A46014931F097BEE8240400CB
:1061C0000A46014931F091BEE52404000A4601491E
:1061D00031F08BBE032404000A46014931F085BE2C
:1061E000762404000A46014931F07FBE6D24040084
:1061F0000A46014931F079BE0E2404000A460149DD
:1062000031F073BE512404000A46014931F06DBEDD
:10621000F8230400002209490B684BB1834204D1E2
:10622000836A4AB19362012070471A469B6AF4E779
:106230000028F5D0184670470B60F4E7C420002012
:1062400010B5044690B104F00DFA2046FFF7E2FFC6
:1062500058B194F82C0040B132F0DAFA044A1368CD
:10626000013B136032F0DAFA002010BD2220FCE777
:10627000C82000202DE9F04F85B00546914698468C
:106280000E469DF8387009B9002F62D12846FFF7F5
:10629000D7FF044600283CD185F82C00686304F041
:1062A000E5FA864239D904F081FA40F2E7318C46AA
:1062B0002146E6FB00C14FF47A726046002330F0BD
:1062C0004BFC4FF0FF32002383468A4630F044FCFB
:1062D0004FF0FF32E88600235846514630F03CFC30
:1062E0002B4611462846CDE900441B4A33F0AAF854
:1062F000044670B9194AC5E90898136885F82D70E5
:106300002E6323B31A469B6A002BFBD195620023B0
:10631000AB62204605B0BDE8F08F47B12B46314651
:106320002846CDE900440C4A04F064FAE0E7304620
:1063300003A904F041FA04460028EAD12B46284676
:10634000CDE90077044A039933F058F8D0E7156097
:10635000DDE72124DDE700BF61630000C4200020E9
:1063600091F82C3013B50C4683B98B8ECA8E9342AC
:106370000ED243B9CDE9003320460B46104A4FF008
:10638000FF3133F01FF8A38E0133A38602B010BD96
:1063900052B191F82D307BB101230093D1E908234C
:1063A0002046096BFFF766FF0123064A84F82C306C
:1063B000136801331360E9E7084604F053F9F3E783
:1063C00061630000C820002070B5104D2B681BB120
:1063D00000260F4B1C6804B970BD94F82C3093B1A3
:1063E00032F016FA2B6884F82C60013B2B6032F0F7
:1063F00015FA94F82D3013B92046FFF70BFFD4E9B6
:10640000083120469847A46AE5E700BFC82000206D
:10641000C4200020034B1B68002B0CBF012004206C
:10642000704700BFC8200020024B1868B0FA80F007
:1064300040097047C820002008B500F02DF8124B25
:1064400012498B4212D30020114B12498B4218D3B0
:10645000FEF798FB186850F82240586840F8224030
:10646000013298688242F5D30C33EAE70022F8E75C
:106470001C6844F8220001325C68A242F8D3083359
:10648000E4E70022F8E700BFF4A3040000A404003E
:1064900000A4040000A404006FF00100104B114A96
:1064A00010B59A60D3F888200F4942F47002C3F8FF
:1064B000882001F50052106641F2FF7050660220FC
:1064C000C3F8D000BFF34F8FBFF36F8F08244FF492
:1064D00040330648C0F88041D36004600B6110BDB2
:1064E00000ED00E0004000000080004400E100E01A
:1064F000014B1868704700BFBC100020014B1860AA
:10650000704700BFBC100020084B1B6F03F007034F
:10651000022B04D0032B05D0012B05D0FEE7044B42
:1065200018687047034BFBE7034870470080005032
:10653000BC100020C0100020002D310108B5FFF76D
:10654000E3FF054B1B6FC3F301330133B0FBF3F0E3
:10655000024B186008BD00BF00800050B81000203A
:106560000048704700B4C404014B1868704700BF6E
:10657000C0100020054B1860054B1B6F03F007038C
:10658000032B01D1FFF7DABF704700BFC010002016
:106590000080005000487047002D3101174B98686B
:1065A000C0F304400C2822D8DFE800F009212121A3
:1065B0002121071719211B1D1F00114870479B68D7
:1065C00003F04073B3F1807F13D0B3F1007F12D09A
:1065D0000C4A002B08BF104670470B4870470B4809
:1065E00070470B4870470B4870470B4870470020B6
:1065F00070470A4870470A48704700BF0040015A78
:10660000405DC60000093D000024F400C0EA2101FD
:1066100080BA8C010048E801005A620280841E00A2
:1066200040420F00014B1868704700BFC4100020A3
:10663000BFF34F8F0549064BCA6802F4E06213436B
:10664000CB60BFF34F8F00BFFDE700BF00ED00E060
:106650000400FA0500239B6AB3F5804F03D2196842
:10666000064A914203D000230370836070470122E1
:1066700002709A689B694260F7E700BF07B0CD5E81
:1066800008B54FF00053024A1A60FFF7D1FF00BF70
:1066900002020FF073B5494B04461A781AB1022270
:1066A0001A7002B070BDCDE900220028F9D0012691
:1066B0001E7032F0ADF8424D424B186017F0EAF907
:1066C0002B785BB900F0E8FD40B93F4808233F4A0A
:1066D0003F49006813F062FE00B92E703D4B5A68C6
:1066E000E2603D4A9A601A6E22605A6E6260D3F888
:1066F0007021A2601B6E5C0440D5384AD368D8076D
:10670000FCD4374B1A68531C3DD04FF48013934090
:10671000344A13660423334C23664FF480632366A4
:1067200031F011FF01300ED031F00DFF40F20113B6
:10673000984208D04FF4804323664FF40043236609
:106740001023C4F870311023264C4FF0804223668A
:106750004FF400536846236601A92266636631F050
:10676000D7FE009B2366019B63662B78002B98D095
:10677000164B1A6822665B68636692E71A4AD3680A
:10678000D907FCD4BDE7194B1B78002BC2D1184B9D
:106790005A68144B12B94FF480121A66154A52689F
:1067A00012B94FF400121A66134B5B68002BB1D17B
:1067B0004FF480020B4B1A66ACE700BFAD540020CB
:1067C000AB540020E4200020D0100020DC2000206A
:1067D000007108000080004455CEAC000000044069
:1067E000C81000200090004400000450AC54002069
:1067F0000080055000C005500000065038B5224DFD
:1068000004462B78012B02D001232B7038BD0028C1
:10681000FCD031F098FE013009D031F094FE40F206
:106820000113984203D0194AD368DB07FCD42268CD
:10683000174B1A6662685A66A268C3F87021E2684C
:10684000D40744BF00229A60124B1A68013213D158
:10685000114A127882B911494968C80748BF1A60BD
:106860000F4A5268D10744BF01221A600D4A52688C
:10687000D20744BF02221A6017F014F90A4B1868B5
:1068800031F0CCFF0023C0E7AD54002000000440ED
:1068900000800044C8100020AC5400200080055047
:1068A00000C0055000000650E420002070B5002410
:1068B000A36AB3F5804F22D21A68124B9A421ED1B6
:1068C000114E337813F0FD0517D11048FFF7E2FEA3
:1068D00008214FF480330E4A0E48C2F88011C3607D
:1068E00011600D4A1361AB6ADB699847044607489B
:1068F000FFF784FF0CB901233370204670BD4FF4BD
:106900008174FAE707B0CD5EAC540020CC200020A3
:1069100000E100E000A000440090004413B51F4BCC
:106920001B7803B9FEE700231D4CCDE900336A460E
:1069300008231C49206813F031FDF0B91A4AD2F837
:106940004031D2F840211F2B4FF0010310D9203ADB
:106950009340019A1343019308236A461149206822
:1069600013F0D2FC4FF00053104A1A60FFF760FE9C
:106970009340009A13430093EEE70D4B9842F1D1F8
:10698000094AD2F84031D2F840211F2B4FF00103C1
:1069900002D9203A9340DEE79340ECE7AD54002063
:1069A000D010002000710800008000440B020FF09E
:1069B0000BE000F038B50025AB6A0446B3F5804F14
:1069C00010D21B6BB3F5804F0CD20748FFF762FE65
:1069D000AB6A20461B6B5B689847BDE838400248AD
:1069E000FFF70CBF38BD00BFE820002037B50025F9
:1069F000AB6A0446B3F5804F019113D21B6BB3F51C
:106A0000804F0FD20948FFF745FEAB6A20461B6B4B
:106A100001999B69984704460448FFF7EFFE20461A
:106A200003B030BD4FF48174F9E700BFE8200020C7
:106A300037B50025AB6A0446B3F5804FCDE9002198
:106A400012D21B6B83B10A48FFF724FEDDE9002157
:106A5000AB6A20461B6B5B6A984704460448FFF705
:106A6000CDFE204603B030BD4FF40174F9E700BFFE
:106A7000E820002037B50025AB6A0446B3F5804F07
:106A8000019113D21B6BB3F5804F0FD20948FFF76A
:106A900001FEAB6A20461B6B01999B6A984704462E
:106AA0000448FFF7ABFE204603B030BD4FF401743D
:106AB000F9E700BFE820002010B50024A36AB3F571
:106AC000804F10D21B6BB3F5804F0CD20748FFF7F5
:106AD000E1FDA36A1B6B1B6B984704460348FFF755
:106AE0008DFE204610BD0124FBE700BFE8200020FA
:106AF00037B50025AB6A0446B3F5804FCDE90021D8
:106B000014D21B6BB3F5804F10D20A48FFF7C2FDB9
:106B1000DDE90021AB6A20461B6B5B6B984704469E
:106B20000448FFF76BFE204603B030BD40F201146D
:106B3000F9E700BFE820002037B50025AB6A04461E
:106B4000B3F5804FCDE9002114D21B6BB3F5804F14
:106B500010D20A48FFF79EFDDDE90021AB6A20460E
:106B60001B6B9B6B984704460448FFF747FE204683
:106B700003B030BD40F20114F9E700BFE820002067
:106B800037B50025AB6A0446B3F5804F019113D2A7
:106B90001B6BB3F5804F0FD20948FFF77BFDAB6A43
:106BA00020461B6B0199DB6B984704460448FFF7AE
:106BB00025FE204603B030BD40F20114F9E700BFC6
:106BC000E820002005490A681318054883428CBF55
:106BD0004FF0FF320B601046704700BFCC10002012
:106BE0000000012037B504680023012261790546C1
:106BF000207901F077F814223023217913FB012347
:106C000003F1A04303F570331B686279D340DB4383
:106C100003F001032370A379022B0ED100F0C6FA12
:106C20002A460749607900F0EBFA012302466179B0
:106C30002079CDE9003301F011F8002003B030BD18
:106C4000BB8503004FF06043D3F8802E30B5D207E8
:106C500015D501240B4D8440D5F8FC2042F08072FC
:106C6000C5F8FC20D3F8002E2243C3F8002E53F8B9
:106C70002020002AF0D003F82010002030BD112081
:106C8000FCE700BF00ED00E010B501224378017879
:106C9000847830209A40054B00FB01331CB942F246
:106CA00010015A5010BD41F21001FAE700C0035024
:106CB00010B5012243780178847830209A40054B42
:106CC00000FB01331CB941F210015A5010BD42F2D1
:106CD0001001FAE700C003502DE9F04F9A46564BD9
:106CE00085B01B7806460F461546DDF83C909DF8AA
:106CF00044B0DDF85080002B00F08D80072A00F2B0
:106D00008C800E9B002B00F08880B9F1000F00F002
:106D10008480129BB3F5006F7FDC012802D1109BA9
:106D2000002B7AD0454B03EB05131B7B002B76D051
:106D3000434C1022002168463AF0BBFD04EB451499
:106D40001022002F59D1394620463AF0B2FD43F2C5
:106D500010036380BBF1000F03D1E37843F003031A
:106D6000E370374A0E9B02EB451CCCE90193129B62
:106D70006901013BC3F30A009DF84C30012E03F07A
:106D800003034FEA836343EA001E53582D48CDF8AE
:106D900000A000EA03004EEA0003535041D1132340
:106DA0000CF1100ECCF80C309CE80F008EE80F00B0
:106DB0006FF00301DCF81C20109B61F39F02012F90
:106DC000CCF81C20CCF8143003D1CCF81890CCF8B7
:106DD00004300027194A290102EB051342F801800B
:106DE000159A28465A60694622469F605E7301F0F4
:106DF00007F8384605B0BDE8F08F002120463AF08C
:106E000058FD4FF444736380BBF1000FA9D1E378C0
:106E100043F03003A4E70C48ECE70C48EAE70C48E1
:106E2000E8E7B8F1000FD4D19CF8023068F30413FE
:106E30008CF80230CDE700BFAE540020F8200020CF
:106E4000782100200F80FFF3028000F0018000F025
:106E5000078000F038B5124B05461B78DBB1E0B176
:106E600031F0D6FC0F4A00231146147B54B92B6035
:106E700001251A0101EB03131D738C5031F0CEFC78
:106E8000204638BD0133082B02F11002EDD131F05C
:106E9000C5FC0548F5E70548F3E70548F1E700BFFD
:106EA000AE540020F8200020048000F0028000F0A2
:106EB000018000F013B531F0ABFC00230B4A147BCA
:106EC0007CB90133082B02F11002F8D1019000F0D7
:106ED0004BFF074B01981C7031F0A0FC204602B01C
:106EE00010BD31F09BFC0348F9E700BFF8200020FB
:106EF000AE540020058000F00D4B10B51B78044601
:106F000093B1072812D831F083FC0A4B03EB04132A
:106F10001A7B2AB100241C7331F080FC204610BD7E
:106F200031F07CFC0448FAE70448F8E70448F6E747
:106F3000AE540020F8200020068000F0028000F00F
:106F4000018000F0154B13B51868002301908DF8EF
:106F5000043031F05DFC124B1C7824B131F05EFC42
:106F6000104802B010BD01221A7031F057FC0E4BD0
:106F700001A81C731C7783F82C4083F83C4083F8ED
:106F80004C4083F85C4083F86C4083F87C400823D5
:106F90008DF8073000F00AFF2046E2E73C250400A8
:106FA000AE540020038000F0F82000200A4A08B503
:106FB00012785AB107280BD8084A02EB00131B7B42
:106FC00043B1002100F0E4FE002008BD0448FCE7C6
:106FD0000448FAE70448F8E7AE540020F8200020FF
:106FE000028000F0018000F0078000F00A4A08B536
:106FF00012785AB107280BD8084A02EB00131B7B02
:1070000043B1012100F0C4FE002008BD0448FCE7A4
:107010000448FAE70448F8E7AE540020F8200020BE
:10702000028000F0018000F0078000F00A4A08B5F5
:10703000127852B107280AD8084A02EB00131B7BCA
:107040003BB100F02BFF002008BD0548FCE70548D8
:10705000FAE70548F8E700BFAE540020F82000200A
:10706000028000F0018000F0078000F00D4B1B78DB
:1070700093B1072812D889B10B4B03EB00131B7B8C
:1070800073B10A4B1A6D012303FA00F010401ABFC6
:1070900000200B700870704705487047054870471E
:1070A00005487047AE540020F8200020000004502E
:1070B000028000F0018000F0078000F00B4A10B55C
:1070C00012780C4662B107280CD859B1084A02EB75
:1070D00000131B7B43B100F0F3FE2070002010BDB5
:1070E0000448FCE70448FAE70448F8E7AE540020F7
:1070F000F8200020028000F0018000F0078000F0FE
:107100002DE9F843174B1F6D5B6D1F4000D5FEE75F
:1071100001260025144CDFF85480DFF854903742E4
:1071200017D02368C8F850609BB1A1682846013188
:107130006268A1609847637B012B0AD148B909EBCB
:1071400045131A7B60F341021A731A7F60F3410200
:107150001A770135082D4FEA460604F11004DED1F6
:10716000BDE8F88300000450F820002000200450FF
:107170007821002070B5044601250B4E04B970BD7E
:1071800094FAA4F0B0FA80F005FA00F306EB0012CE
:1071900024EA03045368002BF0D0117B11B19168ED
:1071A0009847EBE79847E9E77822002008B51920CF
:1071B00000F010FD28B14FF00072074BC3F880219A
:1071C0001A601A2000F006FD28B14FF08062024BD1
:1071D000C3F880211A6008BD00E100E038B505461B
:1071E0000C4631F015FB0022044B03EB05135C60E9
:1071F0001A73BDE8384031F011BB00BF782200207F
:10720000F8B505460F46164631F002FB104B05F067
:10721000FC02D3F824140023EC1804F003041443F4
:1072200021FA04FC1CF0010F07D00133042BF3D129
:10723000FF2431F0F3FA2046F8BDFF2CF9D00122EB
:10724000044B03EB0413C3E901761A73F1E700BFA3
:1072500000C0035078220020064BD3F82404D3F852
:10726000202403F50053104000F05530C3F82004EB
:10727000FFF780BF00C00350064BD3F82404D3F8B7
:10728000202403F50053104000F0AA30C3F8200476
:10729000FFF770BF00C00350024B1968024B18681B
:1072A00012F05CBFD4100020D010002037B592003F
:1072B00004460D4601923AF0B7FC431C0BD060B96E
:1072C00029462046019A3AF0BDFA0028044808BF32
:1072D000002003B030BD0348FBE70348F9E700BFD7
:1072E00010E000F021E000F024E000F010B50446CA
:1072F0003AF092FC431C10D088B900F091FE23466E
:1073000020F003002044984201D1002010BD53F822
:10731000042B0132F7D00348F8E70348F6E70348A7
:10732000F4E700BF0EE000F021E000F024E000F000
:1073300008B531F05EFA014B186008BDB82A00208C
:10734000014B186831F059BAB82A002041F6713360
:1073500010B5104C104AA0428CBF4FF4801400248A
:10736000D169D363936801F4803123F4401323433C
:1073700093600A4B98420A4BD3F818228CBF42F014
:10738000020222F00202C3F8182211B10022024BBD
:10739000DA6310BD005A62020000035080F0FA0266
:1073A00000C007502E4B98424AD022D82D4B98420D
:1073B00040D014D82C4B984239D00AD82B4B984245
:1073C00032D02B4B98422FD02A4B98422CD0002001
:1073D0007047294B9842FAD1284B186F7047284BB9
:1073E00098422AD0274B9842F1D1244BD3F8800001
:1073F0007047254B98422BD009D8244B984223D074
:10740000234B9842E3D11D4BD3F88C007047214B9E
:10741000984221D003F5740303F510539842D6D156
:10742000164BD3F898007047144B986D7047134B68
:10743000586E7047114B586F7047104B986F7047DC
:107440000E4BD3F8840070470C4BD3F8880070477C
:107450000A4BD3F890007047084BD3F8940070475C
:107460000048E8010024F400C0CF6A0080841E00B8
:1074700000093D0040420F00405DC6000080E00F63
:10748000C0EA210180BA8C01007E560380D54302F8
:10749000006CDC020090D00338B5134B0546D3F8DE
:1074A00020010C4600F00700042804D8DFE800F0B3
:1074B0001A0A0E1216000023184605B1286004B1FE
:1074C000236038BDFFF714F80423F6E7FFF74CF804
:1074D0000323F2E7FFF762F80523EEE7FFF75AF818
:1074E0000223EAE70123E8E70080005037B50C46A5
:1074F0000021124A0191D2F88021054602F00302D0
:10750000022A0ED0032A11D0012A14D101A8FFF7B4
:10751000C3FF0D230DB1019A2A6004B1236003B0AB
:1075200030BDFFF73BF805230190F3E7FFF732F892
:1075300002230190EEE70B46ECE700BF008000500D
:1075400038B5104B0546D3F840310C4603F0030321
:10755000022B0BD0032B0DD0012B0FD130F0D2FF1B
:10756000082305B1286004B1236038BDFFF75AF83D
:107570000723F6E730F0C9FF0923F2E701230020D3
:10758000EFE700BF0080005038B5104B0546D3F838
:1075900060310C4603F00303022B0BD0032B0DD0FC
:1075A000012B0FD130F0AEFF082305B1286004B1E4
:1075B000236038BDFFF736F80723F6E730F0A5FF64
:1075C0000923F2E701230020EFE700BF008000500D
:1075D00038B5144B0546D3F800020C4600F00700FE
:1075E000042804D8DFE800F01B0A0E12160000235E
:1075F000184605B1286004B1236038BD30F082FF21
:107600000823F6E7FFF70EF80723F2E730F07DFFD7
:107610000923EEE7FEF792FF0C23800AE9E7012336
:10762000E7E700BF0080005038B5144B0546D3F89B
:1076300008020C4600F00700042804D8DFE800F038
:107640001B0A0E1216000023184605B1286004B16B
:10765000236038BD30F056FF0823F6E7FEF7E2FF5F
:107660000723F2E730F051FF0923EEE7FEF766FF4C
:107670000C23800AE9E70123E7E700BF0080005000
:1076800038B5104B0546D3F840320C4603F00303DF
:10769000022B0BD0032B0DD0012B0FD130F032FF7A
:1076A000082305B1286004B1236038BDFEF7BAFF96
:1076B0000723F6E730F029FF0923F2E700231846F5
:1076C000EFE700BF0080005038B5104B0546D3F8F7
:1076D00000310C4603F00303022B0BD0032B0DD01B
:1076E000012B0FD1FEF740FF032305B1286004B141
:1076F000236038BDFEF796FF0723F6E730F000FF62
:107700000623F2E701230020EFE700BF00800050CE
:10771000032814D005D8012805D0022809D000205C
:1077200005E00F28FBD1084B186FC0F30130013082
:107730007047054BD3F89000C0F30460F7E7024BA5
:10774000186FC0F38020F2E7008000501FB50023BF
:107750000193252817D8DFE800F0131A1D262B35D2
:107760003A50555A5F646977161A3F1616551A260D
:107770002B26351A5026773A3A3A3A2626265A5F69
:10778000FEF7C2FE0190019805B05DF804FBFEF71C
:10779000D5FEF7E7FEF7B8FE02460220FFF7B8FF76
:1077A000B2FBF0F0EEE7FEF7C9FE02460320F5E774
:1077B000FEF7C4FE02460320FFF7AAFFB2FBF0F07B
:1077C0004008DFE7002101A8FFF790FEDBE700217A
:1077D00001A8FFF761FED6E702934FF0E0231B6993
:1077E0005B0705D5FEF7AAFE0290029B0193CAE74C
:1077F00003A902A8FFF7A4FEF7E7002101A8FFF7FD
:107800009FFEC0E7002101A8FFF7BEFEBBE70021F5
:1078100001A8FFF7DDFEB6E7002101A8FFF704FF8E
:10782000B1E7002101A8FFF74FFFACE7094BD3F800
:10783000803003F00303022BA9D0032B01D00020DA
:10784000A0E7FEF7ABFE9DE7002101A8FFF718FFB8
:1078500099E700BF0080005008B50120FFF776FFD0
:10786000BDE80840034988428CBF02210121032062
:1078700000F002B880F0FA02032810B50C4627D0B9
:1078800004D8012804D0022817D010BD0F28FCD13D
:1078900030F092FF30F098FF124B013C196F21F449
:1078A000405141EA04341C67FEF748FE0021FFF70F
:1078B0004DFDBDE81040FFF7CFBF0A4B013CD3F8A8
:1078C000901021F0F85141EA0464C3F89040DCE7DD
:1078D000044B013C196F21F4806141EA84241C6748
:1078E000D3E700BF008000501FB500230193252877
:1078F00021D8DFE800F013202020202A2F454A4F0E
:1079000054595E7120203420204A202020202A2033
:107910004520712F2F2F2F2020204F54314B1B6FCC
:1079200003F00703013B032B05D8DFE803F00C024B
:10793000080A04230193019805B05DF804FB0323B2
:10794000F8E70623F6E70223F4E7002001A9FFF792
:10795000CDFDF0E7002001A9FFF79EFDEBE70293C4
:107960004FF0E0231B695B0705D5FEF7E7FD0B230E
:107970000393039BDEE703A902A8FFF7E1FDF8E705
:10798000002001A9FFF7DCFDD5E7002001A9FFF7E2
:10799000FBFDD0E7002001A9FFF71AFECBE700208E
:1079A00001A9FFF741FEC6E7002001A9FFF78CFE01
:1079B000C1E70C4BD3F8803003F00303022B03D054
:1079C000032B05D00023B5E7FEF7B8FD0B23B1E785
:1079D000FEF7E4FD0523ADE7002001A9FFF750FE07
:1079E000A9E700BF0080005038B50546FFF7DAFC74
:1079F000214B04465A68012A04D120494A609A69F9
:107A00009207FCD10020FFF76FFF042803D130F06C
:107A1000D3FE30F0D9FE1A4A24F04073954221D0AB
:107A2000184A954221D0184AD16811F0060FFBD1AF
:107A300090689360916803F4F81301F4F8118B4295
:107A400016D12846FEF75AFD0020FFF74DFF042807
:107A500010D1FEF773FD0021FFF778FCBDE8384038
:107A6000FFF7FABE43F00073DDE743F08073DAE717
:107A70009060E9E738BD00BF00C0015000E0015050
:107A800040420F0080841E000000015070B5044683
:107A90000020FFF729FF03287CD045F60E030221C2
:107AA000414AC2F88030414B9962012103F580536D
:107AB0009962936DD903FCD4D4E900131B0543EA02
:107AC0000163E17B94F822500B43217B94F82360FF
:107AD00043EA0143617B43EA0133A17B43EA81131B
:107AE00013619169D4E904031B0643EA806301F042
:107AF00000410B43A17EE07E0B43217E43EA01431C
:107B0000617E43EA01239361136AE26923F00D0366
:107B1000002A0CBF0021082143EA020343EA800344
:107B2000214A43EA0103136294F820304FEA4313D9
:107B300031D1906A94F8211020F0330043EA011308
:107B4000034343F001039362194B916D33EA010142
:107B5000FBD10221154B9962936D5B00FCD4106937
:107B6000A36820F4700040EA035010614FF0004217
:107B70000E4B9A611DB9022203F580539A6216B921
:107B800001220C4B9A6294F824301BB1064B0A4A2E
:107B9000C3F8802070BD916A21F0330131430B435B
:107BA00043EA45039362EEE700C0005000D0005066
:107BB0000300014000E00050F1A7FFFF014B93F9E3
:107BC00000007047AF540020014B1880704700BF81
:107BD000E0150020054B420953F8223000F01F0049
:107BE00023FA00F0C04300F00100704700E100E01C
:107BF0000A4A10B51369044643F00403136102F006
:107C00003FFB30F00EFE30BF30F00CFE02F04CFBBC
:107C10001CB9BDE81040FEF791BC10BD00ED00E0BE
:107C2000084A10B51369044643F00403136102F0D7
:107C300027FB30BF02F038FB1CB9BDE81040FEF74F
:107C40007DBC10BD00ED00E0034A0179D36E23F046
:107C500030030B43D366704700400050072AF7B546
:107C60000D4614461F460FD803219600B14000FA76
:107C700006F21548019130F0D8FD05F00302019994
:107C80001248B24030F0D1FD114B12499DF820004E
:107C9000002F08BF1946012303FA04F40C600E4BB1
:107CA0000E49002808BF0B461C600D4B9DF82400B0
:107CB000C3F820441031A3F6DC33002808BF0B467C
:107CC0001C6003B0F0BD00BF00C4035008C40350E3
:107CD00010E4035010D4035014D4035014E40350A0
:107CE00000E00350F8B504460D461F4616464AB15B
:107CF00001238B403021194A01FB0022FFB141F2E0
:107D00001001535004EB4403072D4FF00F014FEACD
:107D1000031317D8A80006FA00F28140104818444F
:107D200030F083FD56B9012130230C4801FA05F5E6
:107D300003FB040077B141F21003C550F8BD42F2D5
:107D40001001DEE7A5F10800800006FA00F281408C
:107D50000448E4E742F21003EFE700BF00C003501D
:107D600004C003500CC003504FF40012064BC3F87C
:107D70008020BFF34F8FBFF36F8F0022FF21034B93
:107D80005A6599625A60704700E100E000000450B3
:107D9000044A054B002918BF1346012202FA00F0DD
:107DA00018607047402004504010045030B50478EB
:107DB00045788178C27801200F4B41EA05412406BD
:107DC00058609C609961FF21996200219963196450
:107DD0004FF0004159654FF0FF314FF4001003F5AB
:107DE0000053196505491301DBB2C1F8800181F820
:107DF0001533086030BD00BF0000045000E100E012
:107E00002DE9F04101250C46C3B2DFF888E0D1F836
:107E100000809D408F7ACB7A94F80DC0097BCEF814
:107E200050500EF5005E4EF820804FF0300E184E88
:107E30001B050EFB006043EA074343EA415322F06F
:107E40000302C0F860C0C365026730F0E1FC736DE7
:107E50002B437365237A13B1336C2B433364637AFA
:107E600013B1B36B2B43B3632279A37943EA024383
:107E7000084A93616179E37943EA014306498B61DA
:107E8000034B55639D64BDE8F04130F0C7BC00BFB3
:107E900000000450002004500010045010B50124CC
:107EA000C0B2844030F0B4FC044B5A6D22EA0402A4
:107EB0005A659C62BDE8104030F0B0BC0000045030
:107EC00010B50124C0B2844030F0A2FC074BDA6A3E
:107ED000224209D15B6B34EA03030CBF0124002466
:107EE00030F09CFC204610BD0024F9E7000004504F
:107EF00041F67132034BDA63012203F50053DA6075
:107F0000704700BF0000035041F671320121044B5D
:107F1000DA6303F50052D1600022DA63704700BFD4
:107F200000000350014BD3F894007047004000500C
:107F3000CB784A7810B55B010C7843EA82030A7962
:107F4000234343EA02130C22424302F1B04213637B
:107F5000012C02BF8A78024B43F8202010BD00BFDD
:107F6000D080035008B54FF0B0435A6802B960B1F1
:107F70005B680BB130F070FC4FF0B04130B10120C4
:107F8000074B586030F068FCC86008BD30F064FCF6
:107F90000223CB6030F060FC0122024B5A60F4E710
:107FA00000100058002000584FF0B0435B6870B5D7
:107FB0000BB130F051FC0121104B457859608378AA
:107FC0000679002BC37814BF02240024002B14BFB1
:107FD000042200224379DB0043EA06132B432343A8
:107FE00013434FF0B0429360054B59600378002B68
:107FF00014BF0B460223D36070BD00BF00200058A1
:1080000000100058054B5B69C3F38512827003F0C2
:108010003F021B0B42700370704700BF00C0075047
:108020000120034B9B680A3303F01F0398407047FD
:108030000080E00F0D4B984208D1A3F50033C3F840
:108040008411C36D43F08003C3657047084B9842A9
:1080500004D1A3F51033C3F89411F2E7054B98420D
:1080600004BFA3F52033C3F8A411EAE7008005504C
:1080700000C005500000065070B5054616461C4667
:1080800019B90320FFF762FB0146402C1BD003D82F
:10809000DCB1202C1BD070BD602CFCD1042303FB71
:1080A00006F2560806EB4113B3FBF2F3094A203BF4
:1080B00002EAC303AA6822F06002AA60AA68144315
:1080C000AC60EB61E7E70623E9E71023E7E7082365
:1080D000E5E700BFF8FF7F00012200F5805310B5EF
:1080E0005A6040F6AA6341F2050243610023124937
:1080F0008360C365C26000F500520361C361C3645D
:1081000091640E498365884206D00D4CA04203D08D
:1081100004F58044A0420BD18842036506D0084B89
:10812000984203D003F58043984201D10023436570
:108130000123536010BD00BFFFFF01000080055008
:1081400000C0055070B50D46FFF7C6FF012300F5CE
:1081500080567360AB7C04461BB1836843F0804358
:108160008360EB7C1BB12046297DFFF763FF2A8AE1
:108170006B7B20461343EA891343E3602B7BD5E9ED
:108180000112FFF779FF6B7D1BB1A36843F48033C5
:10819000A360AB7D1BB1A36843F40043A360EB7DF8
:1081A0002A7E1B07120502F4E00203F0E0431343AA
:1081B000A3656A7E931E012B214B20D89C421AD0C6
:1081C00003F580439C4218D003F580439C420CBFCA
:1081D00002234FF0FF3341F2AC5102205B0103F167
:1081E000A04303F570335850032A23D10423F365C9
:1081F0002B78636170BD0023EDE70123EBE79C4220
:1082000014D0104B9C4213D003F580439C420CBF0A
:1082100002234FF0FF3342F2AC5102205B0103F125
:10822000A04303F570335850012ADEE70023F2E73C
:108230000123F0E7042204F50053DA65D8E700BF14
:108240000080055000C0055038B50446054D35F096
:108250000FFE0FCC0FC594E80F0085E80F0000203B
:1082600038BD00BF6C2B002047F6FF739A42F0B573
:1082700066D0022966D8344DCF0015F8313005EBB1
:10828000C100012B847813D10025C3781B1B9D42AC
:1082900002D3E018C0B2F0BD591B4668A3EB5101F0
:1082A00036F911609642D4BF0D4601F1FF33EEE777
:1082B00040680028EFD0B0F90030934204DBB0F9F9
:1082C00002309342B8BF134682883D44FF2A19BF4B
:1082D000C8214FF0280CB0F90610B0F908C0A1EB86
:1082E00003020CBF0126002692FBFCF26D7832449B
:1082F00012B2954201DD002A01DA6A1E12B24FF471
:108300007A7700EBC206F188B668013213FB01618F
:1083100012B221EAE1715C319542B1FBF7F104DD63
:1083200000EBC206B6888E42EBD200EBC20232F8F6
:10833000040C884228BF0846A04238BF2046A9E75F
:10834000FF20A8E70020A6E76C2B00200229F0B54B
:1083500053D82B4800EBC10410F831106368012991
:108360000FD1E078A478904294BFC4EB0001C4EB35
:108370000201001BCAB28242C8BF002233F91200B8
:10838000F0BD002B39D0A178914202D3B3F902009D
:10839000F6E7E178B3F900009142F1D99988647861
:1083A000A1F1FF06013C714203F10405E4B2714101
:1083B00003F10C071FFA82FCCEB2B44216D805EBCB
:1083C000C1014FF47A756A43B1F902404968521A03
:1083D00004EBD47102EB610292FBF4F29042CFDB2A
:1083E000B3F902009042CBDC10B2C9E737F831E0B4
:1083F0004E1CE645E3D33146DEE70248C0E700BF46
:108400006C2B00200080FFFF08B50448FFF71CFF1D
:10841000BDE80840012035F04EBD00BF64250400D2
:108420007FB51422002101A839F043FA044B01A9B9
:108430004FF0FF30029335F07BFD07B05DF804FB91
:10844000006A18002DE9F0418CB08846DDE912760B
:108450001D460446002847D0002945D0002F43D0B0
:10846000002E41D013F00F033ED120482049A360D5
:10847000002A18BF0146E361C4E90013404609A978
:1084800030F084FB68BB2046099930F001FA294698
:10849000204630F0FDF96946404630F016FC00BB3E
:1084A0006946204630F0E0F9404603A930F018FC58
:1084B000B8B9204603A930F0D7F90697012720461E
:1084C00045F0005506A90797089530F0CDF92046EC
:1084D00009A909960A970B9530F0D0F9204630F09B
:1084E000DFFA0CB0BDE8F0812120FAE700010104B9
:1084F000000100047FB50E461D460446F0B102B9E6
:10850000E3B901230192029345F000530393002342
:108510000B4AA360C4E90023E361204601A930F0BF
:10852000A3F93146204630F0B3F92046294630F011
:10853000AFF9204630F0B4FA04B070BD2120FBE75B
:10854000000009430F4B984209D010D80E4B9842B7
:1085500005D020F48070A3F5806398420FD10B887A
:10856000B3F5105F0CBF00206FF085007047074B1C
:108570009842F4D020F40070A3F58073EDE76FF01B
:10858000850070470010C004004440040012C0047D
:108590002DE9F04F93B09346DDE91E759846DDE96D
:1085A0001C2381468A46209E29B96FF08604204606
:1085B00013B0BDE8F08FBBF1000FF6D00FB9002D5E
:1085C000F3D10AB9002BF0D116B9219B002BECD1C5
:1085D000229B002BE9D049464046FFF7B3FF0446F3
:1085E0000028E4D10146202202A839F062F92022B5
:1085F00021460AA839F05DF902A830F064FA002893
:108600003DD15A46514648460AAB30F0D7FB0446A6
:108610000028CCD10A9830F08DFB04460028C6D142
:1086200015B9229B1860C2E7B74210D27B199E424F
:108630000DD2219B9D42B8D82A463946304639F0A2
:108640001EF9174B984518D06FF08504AFE7144B0F
:108650009845F9D1219B9D42A7D815F00F08A4D1C8
:10866000CDE900762B4642460AA902A8FFF7EAFEAA
:10867000074638B9229B1D6099E73746EDE76FF052
:10868000920494E741463046219A39F012F9229B30
:10869000012FC3F80080F2D16FF08B0487E700BF91
:1086A000004440042DE9F04F93B08146DDE91C758C
:1086B000934698468A461E9E29B96FF08604204646
:1086C00013B0BDE8F08F002AF7D00FB9002DF4D118
:1086D00016B91F9B002BF0D1209B002BEDD04946F3
:1086E0004046FFF72FFF04460028E8D1014620222C
:1086F00002A839F0DEF8202221460AA839F0D9F87C
:1087000002A830F0E0F9002849D15A4651464846BF
:108710000AAB30F053FB04460028D0D10A9830F061
:1087200009FB04460028CAD115B9209B1860C6E78A
:10873000B74210D27B199E420DD21F9B9D42BCD8DE
:108740002A463946304639F09AF8184B98450BD0EE
:108750006FF08504B3E7154B9845F9D11F9B9D42F7
:1087600003D96FF08904AAE7374615F00F08A4D1A2
:108770002B460122CDE900760AA902A8FFF762FE86
:10878000209B1D600546002899D0414630461F9A1F
:1087900039F08FF8209B012DC3F8008002D06FF0D4
:1087A00092048CE76FF08B0489E700BF004440041B
:1087B00013B50024064A6846536F43F0010353671C
:1087C00000948DF80440FFF73FFA204602B010BD38
:1087D0000040005008B50248FFF706F9002008BD28
:1087E00000B4C40430B58BB06C46174D0FCD0FC428
:1087F0000FCD0FC495E8030084E80300134BD3F8B2
:108800004C21120318D4D3F85041E4B28DF819402A
:10881000FFF7D4F9204480F308008DF818000C48C5
:10882000FDF7A8FE6846FFF731F94FF4FA70FFF73D
:10883000CBF900200BB030BD064B1C884FF6FF7300
:108840009C4208BF8C24E1E7502604000080E00F22
:1088500000F049020001E00F6FF00402502110B552
:108860000A480B4C12F0800FD3B21BBF03F00F036A
:10887000043BA3181B1802F101020CBF83F800137C
:1088800019763D2AEED1002010BD00BF00ED00E0BA
:1088900000E100E010B504462FF0ABFF024B1C6076
:1088A0002FF0ABFF002010BD8C2B002010B52FF057
:1088B000A0FF034B1C682FF0A0FF204610BD00BF97
:1088C0008C2B002013B513460C4618B90192FFF704
:1088D000EDFF019B01462246044810F019FB0028D9
:1088E000D4BF3720002002B010BD00BF838E03002C
:1088F00010B5002400F01EF80348044B8460436068
:10890000FFF7C8FF204610BD902B00201189000002
:1089100013B5064C23780093054B1B8830F0CAFA38
:1089200010B923780133237002B010BDB054002079
:10893000E215002008B5074B1A6842B90122082049
:108940001A602FF0A8FE0449044801F0EDFA002057
:1089500008BD00BFA42B0020F41000209C2B002099
:1089600030B51446054687B0104630F002FB636907
:10897000024683423CBFD4E903315B181B1A7BB12A
:108980000F49284603910021CDE9013101230494C8
:108990000093D4E900132FF0C4FE002007B030BDCF
:1089A0000122627694F82D20002AF6D084F8353022
:1089B0001321E369204698472046636A9847ECE70D
:1089C000618900002DE9F04788B0044688461746C3
:1089D00099462FF01DFF8246002F7AD0237E03F0A8
:1089E000FF02002B00F0A280204630F0C2FA666938
:1089F000B04205D1637ED4E903521544AD1B01E0BA
:108A0000F9D9851BBD4228BF3D462FF001FF94F8E0
:108A10002D300646002B6DD12A464046616938F05C
:108A200021FF63692F462B44636121E0037803F043
:108A3000FD0111295BD1216B814205D1A3F1110107
:108A40004B424B4184F83430013F6369216B013262
:108A50008B4203F1010308BF2363636195426069A0
:108A6000E4D1D4E90323216B1344994200D122635A
:108A70000025D4E9032361691344994208BF626168
:108A8000207A6576FEF792FA204630F072FA636932
:108A9000834232D1257694F82D30E568656103B1C3
:108AA00025632046636A9847214B2A460393002397
:108AB00002932369216801930123207A009304948F
:108AC00063682FF02EFE207AFEF790FA30462FF0E2
:108AD000A5FE5046C9F800702FF0A0FED9F800306E
:108AE000002B0CBF1B20002008B0BDE8F08708F861
:108AF000013BAAE72F460022B0E70123207A237624
:108B00000DF11E01FEF7DAFA9DF81E30002BDAD0C7
:108B10000DF11F01207AFEF7A9FA9DF81F10002918
:108B2000D1D12246207AFFF71BFFCCE71746D0E7CA
:108B300061890000002808DB0123420900F01F00C2
:108B400003FA00F0014B43F82200704700E100E017
:108B5000002809DB0122430900F01F0002FA00F09F
:108B6000024A603342F82300704700BF00E100E092
:108B700070B504460568FFF799FE844202D10020D3
:108B8000FFF788FE95F93600FFF7E2FF95F93630DA
:108B9000002B0DDB01215A0903F01F0301FA03F337
:108BA0001849203241F82230BFF34F8FBFF36F8F47
:108BB00095F93700FFF7CCFF95F93730002B0DDB27
:108BC00001215A0903F01F0301FA03F30D49203272
:108BD00041F82230BFF34F8FBFF36F8F287AFEF733
:108BE00025FA287AFEF788F9FEF764F9002328466B
:108BF000C4E90033C4E90433A360AB6ABDE8704044
:108C0000184700BF00E100E02DE9F0410C46154691
:108C1000064686B04022002120461F4638F049FE15
:108C200095E8030000232A692376EB6884E80300B3
:108C3000C4E904232A7DE36084F82C20AA7D236301
:108C4000012384F8343084F835300C9B84F82D20CF
:108C500023620D9BE76163620E9BA3622B7A84F80B
:108C600036306B7A84F837302D4B346073602D4B7F
:108C7000B3602D4B33612D4B73612D4BF360FEF7C9
:108C800061F938B12B4B984204D01024204606B02D
:108C9000BDE8F081002104F10800FEF7DBF807468B
:108CA0000028F2D14FF00108234B3362234B84F8A4
:108CB0003C80B361224BF3619DF8403084F8390069
:108CC00084F83B309DF83C30204684F83A30697D8A
:108CD00084F8388030F05DF995F90900FFF738FF26
:108CE00095F90900FFF726FF164B0494CDE90273AE
:108CF0002369CDE900836368E2682168207A2FF058
:108D000010FD04460028C0D195F90800FFF720FFA8
:108D100095F90800FFF70EFF3046FFF7BBFDB5E7FA
:108D2000E38F0300C5890000618F0300678F030094
:108D3000718B0000038000F0378F0300938F0300D6
:108D40006D8F0300618900002DE9F0414FF00108AB
:108D50001C46584B86B00293574B0C9D0193574BC2
:108D6000174600930A46CDE903882946544BFFF77E
:108D70004BFF0646002876D1236804222B64237912
:108D800085F84430A17985F84610607985F845006A
:108D9000237A85F84830E37985F84730A37A85F857
:108DA0004A30637A85F84930237B85F84C30E37A82
:108DB00085F84B304346FEF795FF43460222217A61
:108DC000E079FEF78FFF3E7039462068FFF7BAF969
:108DD0001421A27B3B4B03EB4210C0F8AC1594F876
:108DE00006C061792E3203EB421341EA0C4159600F
:108DF000227AE37943EA0243C0F8BC3585F84D6036
:108E00007B7E032B53D8DFE803F01F02324D012392
:108E1000002785F84D3000230222A17A607AFEF700
:108E200061FFA17A627AA37B42EA014241F2B45126
:108E30005B0103F1A04303F570335A500422236809
:108E400003F58053DA65AFB963792A6C85F845304C
:108E5000A379052185F84630D36C206843F00403DC
:108E6000D3642FF03CFD304606B0BDE8F08102230C
:108E700085F84D3000230422217BE07AFEF732FF93
:108E800041F2AC520221A37B5B0103F1A04303F545
:108E900070339950217BE27A42EA014241F2B851A3
:108EA0005A50D1E70323012785F84D30B3E7232635
:108EB000D9E700BF0D9103000191030091910300D8
:108EC0008591030000C0035007B501F055FC6A46C8
:108ED00001F0F4FC18B15221034800F079FBDDE900
:108EE000000103B05DF804FB7826040008B501F02A
:108EF0007FFB18B17A21024800F06AFB002008BD10
:108F00007826040008B500F0C7FA0E4A536A43F405
:108F100070235362EFF308834FF0CD310A4A043BCC
:108F200093420BD20222094B1A6700F0EBFCFFF7C9
:108F3000DDFFBDE808400648FFF786B943F804198D
:108F4000EEE700BF00ED00E0000000200040005010
:108F50006425040007B5042200200DEB020134F063
:108F600063FF042804D04FF4BF71044800F030FBC5
:108F7000019800F073FC03B05DF804FB7826040050
:108F800008B500239B6A1B0C1B0433B10B4A9342A8
:108F900003D043210A4800F01BFB00239B6A13F413
:108FA000404F03D04621064800F012FBFDF77EFC3F
:108FB000002814BF8620002008BD00BF0000E10F7C
:108FC000DA260400002300B59B6A8FB09B69DB039F
:108FD00003D400200FB05DF804FB01A8FDF7EAFC04
:108FE000059A002AF5D091680D4BB1F5803F28BF56
:108FF000890A508834BFD980D980118828BF40F0B1
:1090000010001980516858809980D168044899608F
:109010001169D9605169127E19611A75DAE700BFCA
:10902000E02D002008B500239B6A9B69DB0303D475
:10903000B821094800F0CCFA084B4FF40E720849E9
:109040001868FDF7F5FC28B1BDE80840BD210248CD
:1090500000F0BEBA08BD00BFDA260400F82D0020DB
:10906000A82B0020002108B58B6A986910F4803085
:109070000BD00848FDF7FEFC40F20123984205D0D2
:1090800040F20323C31A5842584108BD4FF6FF70FF
:10909000FBE700BFA82B002008B500239B6A9B6953
:1090A000DB0306D501210448FDF7A0FC08B9FDF754
:1090B000E7FA012008BD00BFF82D0020082310B5F5
:1090C00048400A0A0649C0B200F00104400804B151
:1090D0004840013B13F0FF03F6D1504010BD00BFE4
:1090E0002083B8ED2DE9F0470025144C144FDFF82C
:1090F0005890DFF8588022464946002057F8043B34
:10910000EEB22FF0C3FE2378A2460134002BFAD131
:109110009AF801307BB10B4906F00306032E08BF15
:10912000414600202FF0B2FE9AF801300135002BA5
:10913000E1D1BDE8F0874146F3E700BFB03304005A
:1091400000100020E662040044270400C42104004B
:1091500040F605226A4B2DE9F0411B8893420ED858
:10916000B3F5206F0DD840F20252934218D040F26E
:109170000172934220D040F2015293420AD0BDE8DE
:10918000F081A3F602235F4C032B1ED8DFE803F027
:10919000376396B25C490020BDE8F0412FF076BEFF
:1091A00000205A492FF072FE564B1A6C0020BDE881
:1091B000F04157492FF06ABE524A0020D2E92423D9
:1091C000BDE8F04153492FF061BE002052492FF015
:1091D0005DFE94F868309E0703D500204F492FF0BC
:1091E00055FE94F86B305D0603D500204C492FF0F6
:1091F0004DFE94F96B30002BC1DA4A49CBE70020D1
:1092000049492FF043FE94F86430980704D00020B9
:10921000226C3F492FF03AFE94F96430002B04DAB7
:109220000020226F41492FF031FE00250126404FDA
:10923000DFF80881626E06FA05F3134207D057F88B
:10924000252013781BB1414600202FF01FFE013569
:10925000082DEFD193E7374900202FF017FE2C4956
:109260000020226C2FF012FE94F86530590703D5C8
:10927000002031492FF00AFE94F96530002B04DA02
:109280000020226F29492FF001FE0825284E2B4F80
:10929000636EEB40DA0707D556F8252013781BB12B
:1092A000394600202FF0F2FD0135102DF0D194F851
:1092B000640000287FF463AF21496DE72149002055
:1092C0002FF0E4FD0020226C11492FF0DFFD102566
:1092D000174E1A4F636EEB40DB0707D556F8252073
:1092E00013781BB1394600202FF0D0FD01351A2D1F
:1092F000F0D144E7002014492FF0C8FD226C55E757
:10930000484D0020001000204E2704008C27040048
:10931000BD270400D8270400F42704000D2804000A
:10932000482804007C280400B9280400DF28040031
:1093300024320400062904001E290400FD2804002C
:109340006529040096290400B02904002DE9F04F96
:10935000434C85B0636BD4F83CA05A0744BF002649
:10936000B046D4F84CB05FBFD4F838A0D4F848B0B9
:10937000D4F850803B4E54BFDFF81091DFF81091C5
:1093800013F0080F384B394A18BF1A46B6EB0807D6
:109390001FBF64237D0803FB0B55B5FBF7F50CBF1E
:1093A0003D46ADB24B4632490020CDE9016ACDF8C9
:1093B0000080BFB22FF06AFD2B460020CDE9009758
:1093C0002C491FFA8BF22FF061FDB24501D8C2453E
:1093D00004D24A46002028492FF058FDD4E917034B
:1093E00018433AD0002025492FF050FD00250126D2
:1093F000234FDFF8A080E26D06FA05F3134207D091
:1094000057F8252013781BB1414600202FF03EFD70
:109410000135202DEFD100250126194FDFF874808A
:10942000226E06FA05F3134209D007EB8503D3F841
:10943000802013781BB1414600202FF027FD013515
:109440001D2DEDD100200F492FF020FD00200D49EA
:1094500005B0BDE8F04F2FF019BD0B49F4E700BF90
:109460000010002000100020D7290400DE2904008D
:10947000E6290400182A0400522A0400712A040074
:10948000BC320400B41F0400A12A0400D229040045
:10949000516404001140040010B5FEF743FD04467A
:1094A0002FF0D4F90022012101FA02F3234018D051
:1094B000204B214933F81230062B18D040F20722F6
:1094C000934211D14FF000524FF20F005488844262
:1094D0000AD11088984207D14CF23C33538008805F
:1094E00010BD0132102ADFD1134A138012E04FF071
:1094F00000534FF20F025888904218D11B88B3F5E1
:10950000406F28BF4FF4C0630B804CF23C324FF0E9
:1095100000535A80084B1A8840F201739A4201BFE7
:10952000064B074AD2E90001C3E90001D8E74FF42E
:10953000C063E9E77C340400484D0020FC2D002086
:1095400090100020014B1888704700BF484D002044
:10955000014B1888000A7047484D0020044B05480D
:109560001B881A0AB3F5406F38BF00EB82007047C2
:10957000484D00209C340400044B1888044B020A18
:1095800053F82230C0B203EB80007047484D0020F2
:109590008C32040010B504462FF032F94FF000531E
:1095A0004FF20F021C805A80BFF35F8FBFF34F8FC3
:1095B0000549064BCA6802F4E0621343CB60BFF36F
:1095C0004F8F00BFFDE700BF00ED00E00400FA058B
:1095D00038B504460D4600F0C7F92FF011F92B46B7
:1095E0002246054900202FF051FC29462046BDE8BF
:1095F00038402FF083BE00BFB72A04006C4A2DE923
:10960000F0416C4B55686C4C5D65516A99656B49CE
:10961000D1F80002D865D1F80412586B1966916A26
:1096200010F0040F5966D16A4FF000009966116B73
:10963000D966516B1967D26BD8645A67D3E90E218A
:1096400008BF11465E4A91421A655DD301F12000C0
:10965000A04259D88869C5F308051864CE69062D5B
:109660005E6455D1574DA84252D3574DA8424FD2B0
:1096700005884DF6426085424AD11868C3F89000CB
:109680005868C3F8940040F20170A242154604D213
:109690002E680432B6F1CD3FF7D00022C3E91E2276
:1096A000C3E92022C3E92222641B434EDFF814C120
:1096B000DFF814E19C648E422DD8D3E91EC7D3E9AC
:1096C0002065D3E922414FF0000E013AD2B2FF2AC1
:1096D0003DD1BEF1000F05D0C3E91EC7C3E9206527
:1096E000C3E92241B3F85430C3F308030C2B3CD830
:1096F000022B52D9DA1E092A4FD8DFE802F0553280
:1097000041444E4E4E4E4E4B0021C3E910112C49A0
:109710004FF42060B9E756F8044D6445CBD3744547
:10972000C9D2E507C7D50625284F57F8048BA045B1
:10973000C1D0013D15F0FF05F7D10AB9052201E0BE
:10974000013AD2B202F11E0543F82540B3E7E046E4
:109750004FF0010EBC4637462E4625460C46414684
:10976000B3E740F60220BDE8F0813B2B15D1184B42
:109770009B6913F0020F40F2025318BF1846F2E73C
:1097800040F60320EFE740F60423B0F5206F08BF52
:109790001846E8E740F60520E5E740F60722013BDA
:1097A0004B2B98BF1046DEE740F60120DBE700BFF9
:1097B00000ED00E0001000200010002000E100E0BB
:1097C0000000002034410000FC1B04007810002041
:1097D0000080015A00F00CB800F00AB800F008B898
:1097E00000F006B800F004B800F002B800F000B8CD
:1097F00072B61EF0080F09D01EF0040F0DD0DFF86E
:1098000050E0AEE8FF1F6FF002000CE0DFF840E030
:10981000AEE8FF1F6FF00E0005E0DFF834E0AEE8C1
:10982000FF1F6FF006006946EFF309828EE807001C
:1098300086460848084C854501D3A54501D384F3E5
:109840000888FFF7DBFE84F30888FFF7A3FE00001B
:1098500000100020400000200010002082B2074BC2
:109860004AB1000C1A8008BF4FF6CE22044B14BF39
:1098700018801A8070474BF6EF62F2E7E41500207B
:10988000E61500200B4BB3F900201888002AB8BF5A
:1098900080F0620042001A80074AB2F90010138873
:1098A0000029BCBF83F4805383F00B03590011805F
:1098B00058407047E4150020E615002008B501F077
:1098C000C5F960B10A4B0344072B0DD8072B0BD801
:1098D000DFE803F004060A080A0A0A0CC22008BDE1
:1098E000C320FCE7C420FAE7C520F8E7C120F6E76B
:1098F000FF1FFF0F024B9A6903F500539A617047EF
:109900000080015A1FB50D2400212246684637F019
:10991000D0FF01238DF800300323104A8DF8094051
:109920008DF80A30D2F800320D4C23F0070343F0D3
:10993000010369462046C2F800322FF004F84FF4C4
:1099400000610223074A04F50050C2F884118361C4
:10995000516004F58054E36104B010BD00800050F4
:109960000080015A00E100E001482EF0DBBF00BF9B
:109970000080015A08B504482FF03EF8BDE80840C1
:10998000002101482EF0BFBF0080015AF0B519B385
:10999000002820DA2D23B0F1004F137000D0404290
:1099A000012119E0801B8642ECB205F10105F9D9CD
:1099B00014B9BCF1000F05D04FF0010C4D1C303430
:1099C0005454E9B2013B13F0FF0309D13030505435
:1099D000481CC0B2F0BD002109234FF0000C024F1B
:1099E000002557F8046BDEE7D43404002DE9F04F6E
:1099F000002495B02146029480461646A146442292
:109A0000274603A802AC9B46254637F052FF0DF1CE
:109A1000480A317859B9641BE4B22246294600202D
:109A2000C047002840F0AF803C44E0B2ACE02529BC
:109A30001AD0B9F1000F1BD1204600F8011B0446D3
:109A40005445C0F0F580641BE4B22946224600204C
:109A5000C0470146002840F0968027444822284607
:109A6000FFB237F026FFE2E0B9F1000F00D1013676
:109A70003278782A06D8612A07D8252A5DD039D8C5
:109A8000002AC8D04FF00009DAE7A2F162011629D6
:109A9000F8D801A353F821F0479B0000D99B0000A0
:109AA000359C0000859A0000859A0000859A000088
:109AB000859A0000859A0000859A0000859A00002A
:109AC000359C0000859A0000859A0000859A000068
:109AD000EB9B0000859A0000859A0000EB9B00003C
